:100000000AC024C023C022C022C020C01FC01EC0FE
:100010001DC01CC01BC011271FBFCFE5D0E0DEBF35
:10002000CDBF20E0A0E4B0E0E2EFF1E402C0319106
:100030003D93A234B207D9F720E0A2E4B0E001C0BA
:100040001D93A734B207E1F7CCD0D1C0D9CF1F930D
:100050000F930FB70F9310E04F935F936F9346A1E9
:100060004F5F46A946A14530C0F016A963A153A130
:1000700041E0651301C040E043A945A14F5F45A998
:1000800045A1443150F015A944A14F5F44A944A1B2
:10009000453018F014A941E042A96F915F914F914A
:1000A0000F910FBF0F911F911895F89441B14360C4
:1000B00041B942B14C7042B94EB542604EBD4DB5EA
:1000C00048614DBD40E157E253BD42BD4DB5426070
:1000D0004DBD4BB541604BBD78940895F8944EB535
:1000E00040684EBD78940895F8944EB540624EBD78
:1000F000789408954EB54F774EBD109808954EB53B
:100100004F7D4EBD11980895CF93C0E050E001C0DF
:1001100050E042A1442351F012A940A14F5F40A9F1
:1001200040A14530A8F3E6DFEADF59C040A14130E5
:10013000E9F543A1C41336C039C0E1DFCFDF46B5CE
:1001400057B54C595F4F57BD46BD51E0E2CF43A173
:10015000C41330C033C0D3DFC1DF46B557B54456F2
:10016000510B57BD46BD51E0D4CF43A1C4132AC0A3
:100170002DC0C0DFB9DF44B555B54C595F4F55BDF3
:1001800044BD51E0C6CF43A1C41325C0C42FC1CF85
:10019000B1DFAADF44B555B54456510B55BD44BD3A
:1001A00051E0B7CFC3A15113CACFC7CF40A142304E
:1001B00029F4CDCFC3A15113D0CFCDCF40A143302F
:1001C00029F4D3CFC3A15113D6CFD3CF40A144300C
:1001D00009F09FCFD8CFC3A15113DCCFD9CFCF9196
:1001E000089548ED4CBF16BF60DF8EDFFFCFF89457
:0201F000FFCF3F
:0201F20001000A
:00000001FF
